:0300000002078371
:0C078300787FE4F6D8FD7581570207CAA4
:0609C60001570101560279
:100BC000E4F510120CF1120D07E4FF120C17120CD1
:100BD000F1120C405009E54D24047003120D50121F
:0D0BE0000AEE8F10E51060E9120C8C80E425
:100C8C00EF24FE600D14600D14600D2403700C0233
:0C0C9C000D9E020DA1020D5D120D6922DB
:030D9E00020CC381
:030DA100020CDB66
:0C0D5D007BFB7DFB7F02120BED020C689B
:0C0D6900120CA87BFA7DFA7F02020BED51
:1000260000E010080810E000000F102020100F005C
:10003600001010F8000000000020203F20200000E3
:10004600007008080888700000302824222130003B
:1000560000300888884830000018202020110E0043
:100066000000C02010F8000000070424243F2400EC
:1000760000F80888880808000019212020110E00C1
:1000860000E0108888180000000F112020110E00D3
:1000960000380808C83808000000003F00000000CB
:1000A6000070880808887000001C222121221C008C
:1000B60000E010080810E0000000312222110F00B5
:1000C600000000000000000000000000000000002A
:1000D600000038FCFC3800000000000D0D00000098
:1000E600000E1E00001E0E000000000000000000B2
:1000F60020F8F820F8F82000020F0F020F0F020078
:10010600387C444747CC98000306041C1C070300B0
:1001160030300080C06030000C060301000C0C007B
:1001260080D87CE4BCD84000070F0808070F0800F9
:1001360000101E0E0000000000000000000000007D
:100146000000F0F80C040000000003070C08000093
:100156000000040CF8F000000000080C0703000083
:1001660080A0E0C0C0E0A0800002030101030200FD
:10017600008080E0E08080000000000303000000B3
:1001860000000000000000000000101E0E0000002D
:1001960080808080808080000000000000000000D9
:1001A60000000000000000000000000C0C00000031
:1001B60000000080C06030000C0603010000000053
:1001C600F8FC04C424FCF800070F0908080F070010
:1001D600001018FCFC0000000008080F0F080800BB
:1001E600080C84C4643C18000E0F0908080C0C00A7
:1001F600080C444444FCB800040C0808080F070027
:10020600C0E0B098FCFC8000000000080F0F08005A
:100216007C7C4444C4C48400040C0808080F07000E
:10022600F0F84C4444C08000070F0808080F070088
:100236000C0C0484C47C3C0000000F0F000000007E
:10024600B8FC444444FCB800070F0808080F070030
:10025600387C444444FCF800000808080C070300F6
:10026600000000303000000000000006060000001C
:1002760000000030300000000000080E06000000FC
:100286000080C0603018080000000103060C08005A
:10029600404040404040400002020202020202008A
:1002A6000008183060C0800000080C06030100003A
:1002B600181C04C4E43C18000000000D0D000000EA
:1002C600F0F808C8C8F8F000070F080B0B0B010080
:1002D600E0F0988C98F0E0000F0F0000000F0F0080
:1002E60004FCFC4444FCB800080F0F08080F070084
:1002F600F0F80C04040C180003070C08080C0600A0
:1003060004FCFC040CF8F000080F0F080C070300AF
:1003160004FCFC44E40C1C00080F0F08080C0E003B
:1003260004FCFC44E40C1C00080F0F08000000004D
:10033600F0F80C84848C980003070C0808070F005B
:10034600FCFC404040FCFC000F0F0000000F0F00BB
:10035600000004FCFC0400000000080F0F08000069
:1003660000000004FCFC0400070F08080F0700004B
:1003760004FCFCC0F03C0C00080F0F00010F0E003F
:1003860004FCFC0400000000080F0F08080C0E0017
:10039600FCFC387038FCFC000F0F0000000F0F004B
:1003A600FCFC3870E0FCFC000F0F0000000F0F0093
:1003B600F0F80C040CF8F00003070C080C07030017
:1003C60004FCFC44447C3800080F0F0800000000C1
:1003D600F8FC040404FCF800070F080E3C3F270055
:1003E60004FCFC44C4FC3800080F0F00000F0F008B
:1003F600183C6444C49C1800060E0808080F070041
:10040600001C0CFCFC0C1C000000080F0F08000070
:10041600FCFC000000FCFC00070F0808080F0700A2
:10042600FCFC000000FCFC000103060C06030100B6
:10043600FCFC008000FCFC00030F0E030E0F030003
:100446000C3CF0C0F03C0C000C0F0300030F0C003A
:10045600003C7CC0C07C3C000000080F0F08000078
:100466001C0C84C4643C1C000E0F0908080C0E000A
:100476000000FCFC0404000000000F0F0808000048
:100486003870E0C0800000000000000103070E0085
:1004960000000404FCFC0000000008080F0F000028
:1004A600080C0603060C080000000000000000000F
:1004B6000000000000000000202020202020202036
:1004C6000000030704000000000000000000000018
:1004D60000A0A0A0E0C00000070F0808070F080052
:1004E60004FCFC2060C08000080F0708080F070006
:1004F600C0E0202020604000070F0808080C040018
:1005060080C06024FCFC0000070F0808070F0800E5
:10051600C0E0A0A0A0E0C000070F0808080C040077
:1005260040F8FC440C180000080F0F0800000000FB
:10053600C0E02020C0E02000276F48487F3F000031
:1005460004FCFC4020E0C000080F0F00000F0F0065
:10055600000020ECEC0000000000080F0F0800006F
:100566000000000020ECEC0000307040407F3F00AF
:1005760004FCFC80C0602000080F0F01030E0C0075
:10058600000004FCFC0000000000080F0F0800003B
:10059600E0E060C060E0C0000F0F000F000F0F002A
:1005A60020E0C02020E0C000000F0F00000F0F0069
:1005B600C0E0202020E0C000070F0808080F070051
:1005C60020E0C02020E0C000407F7F48080F0700E1
:1005D600C0E02020C0E02000070F08487F7F4000D1
:1005E60020E0C0602060C000080F0F080000000077
:1005F60040E0A02020604000040C09090B0E040016
:100606002020F8FC202000000000070F080C040042
:10061600E0E00000E0E00000070F0808070F080010
:1006260000E0E00000E0E0000003070C0C07030018
:10063600E0E0000000E0E000070F0C070C0F0700E9
:100646002060C080C0602000080C0703070C08006B
:10065600E0E0000000E0E000474F4848683F1F0028
:10066600606020A0E06020000C0E0B09080C0C0056
:10067600004040F8BC040400000000070F08080012
:10068600000000BCBC0000000000000F0F000000CE
:10069600000404BCF84040000008080F07000000F2
:1006A600080C040C080C0400000000000000000008
:1006B60080C0603060C0800007070404040707009C
:070D1B00AF05120D227F401D
:0B0D2200C2A3C2A2D2A48F80C2A422F0
:0B0D7500C2A3D2A2D2A48F80C2A4228D
:10000300EF14600C14600E2402700FC2A0C2A12270
:0F001300C2A0D2A122D2A0C2A122D2A0D2A122E9
:100C17001200037DB87C00120D1BE4FBFAE4FF12FF
:100C27000D750BBB00010AEB64404A70F00DBD0067
:080C3700010CED64C04C70DFFC
:010C3F002292
:020B9200AE07AC
:100B9400EE25E024B8FEFDEE2401FBE433FAEDD3A8
:100BA4009BEA6480F87480985011120D1BE4FCE4F5
:0B0BB400FF120D750CBC40F70D80DC3B
:010BBF002213
:0100220022BB
:100D07007F3F120D227FC0120D227FB8120D227F66
:040D170040020D2267
:100D2D00EF24B8FF120D22ED75F008A42440FF0248
:020D3D000D2285
:04091400AE05AC0779
:10091800AA06EED3940750047F018006EE24F8FA65
:100928007F02120003AF04AD02120D2D74E02BFB01
:10093800AF04120D2DE4FEBE0808EC04FFAD021250
:100948000D2D75F010EBA424C6F582E5F03400F502
:1009580083E5822EF582E43583F583E493FF120D57
:05096800750EBE10D267
:01096D002267
:100A62008F158D168B178A188919E51525E0F5154E
:100A7200AB17AA18A9191206C6FB602EE516D39465
:100A82000F401105150515E4F516E515D394074039
:100A920003E4F515AD160516AF15120914740125F8
:0B0AA20019F519E43518F51880C6227C
:100AEE0020900B7F05120D3F3090FD7F012220914B
:100AFE000B7F05120D3F3091FD7F022220920B7F5E
:100B0E0005120D3F3092FD7F032220930B7F0512BD
:0B0B1E000D3F3093FD7F04227F00227A
:0B0D8000526571756573743A002F0016
:1009CC0005370000000000142100000000000000AA
:1009DC0000000000000000000000000000043D00CA
:0C09EC00000000013500013C0001360055
:100C6800E4F511F511E511C3953650127B007A00B1
:100C78007921751614AD11120A15051180E7E4F5EE
:040C880036020B29FC
:100CA800E536D3940040137B007A0079211536ADE0
:0B0CB80036751614120A15120B2922C3
:0D0D5000AF36053674212FF8A644020B299A
:100B2900E4FDE536C394044010E5365403FF600242
:100B390080027F04C3E5369FFDE53624FFFFE434D8
:100B4900FFFEEF7802CEC313CE13D8F904F53CF5B6
:080B590035AF05AD360208942A
:100CC300E53CD394014010153CE53C1425E025E0B8
:070CD300FF2404FD12089448
:010CDA0022F7
:100CDB00E53C6535600F053CE53C1425E025E0FF60
:050CEB00AD3612089473
:010CF00022E1
:040894008F128D131F
:10089800E4F514E513C394145071E513C39512409D
:1008A8006AE4F514C3E5139512FFE514C39F5014C9
:1008B800E51225142421F8E6FF743D2514F8A6074F
:1008C800051480E0E4FF120C17E4F514C3E5139552
:1008D80012FFE514C39F5030743D2514F8E6FF7EDF
:1008E800007B007A00793712080F7BFF7A0D798038
:1008F800E4FDAF14120A627B007A0079377D08AFF5
:0B09080014120A62051480C4120AAD2C
:0109130022C1
:100AAD00AF3C7E007B007A00793712080F7B007A0D
:100ABD000079377D0D7F03120A627BFF7A0D7989EC
:100ACD007D0E7F03120A62AF357E007B007A0079BE
:100ADD003712080F7B007A0079377D0F7F03020AEA
:010AED0062A6
:100D3F007E6EAD071FED6008AD061EED60F480F806
:010D4F002281
:0B0D8B00EF1FAC0670011E4C70F6223A
:0A080F008E158F168B178A188919B1
:1008190085151A85161BE4F51CF51DAB17AA18A931
:1008290019851D82758300E412070C051DE51DB4A9
:1008390005E9051CAE1AAF1B7C007D0A12072E8E36
:100849001A8F1BE51B451A70E9851C1DE51DD394FC
:10085900004037AE15AF167C007D0A12072EED2435
:1008690030FFE51D7C0024FFF582EC34FFF583ABF6
:1008790017AA18A919EF12070CAE15AF167D0A129F
:0A088900072E8E158F16151D80C274
:010893002242
:060A15008B128A13891404
:100A1B00E4F517EDC39516503DAF05E51614FEEF43
:100A2B00C39E501BEFF582758300A3AB12AA13A9CB
:100A3B00141206DF8F8275830012070C0F80DC7E89
:100A4B000074FF2516F582EE34FFF583AB12AA1363
:060A5B00A914E412070CCF
:010A61002272
:1009F80008430000000000000000084B0000000051
:0C0A080000000000C1000141000142009C
:080D96008F993099FDC29922EA
:100CF100758920758DFD758BFDD28ED29FD29ED2C6
:060D01009CD2ACD2AF222F
:060B61008B538A548955F4
:100B6700E4FEC29B7FFF120D96EEC39D5018AB5358
:100B77000555E555AA547002055414F91206C6FF27
:0B0B8700120D960E80E37FFE020D961B
:100BED00AE07AC03D29B7FFF120D96AF06120D968A
:100BFD00AF05120D967FFE120D96C29B0F120D962C
:0A0C0D00AF04120D967FFE020D9653
:0300230002096E61
:07096E00C0E0C0D075D00805
:10097500751E00C2ACC298209A22E541C394084076
:10098500057541008036AF41054174432FF8A6999E
:10099500E599B4FE25754100D200801EE542C39459
:1009A5000840057542008014AF420542744B2FF88C
:0C09B500A699E599B4FE03754200D2AC8F
:0509C100D0D0D0E032AF
:100C4000300023E4F580C200E54BB4FF05E543F432
:100C50006002C322E54CB55702D322AB44AD4DAF81
:080C600056120BEDC322C32262
:10078F00020BC0E493A3F8E493A34003F68001F2B5
:10079F0008DFF48029E493A3F85407240CC8C3336B
:1007AF00C4540F4420C8834004F456800146F6DF3A
:1007BF00E4800B01020408102040809009C6E47EFB
:1007CF00019360BCA3FF543F30E509541FFEE4932F
:1007DF00A360010ECF54C025E060A840B8E493A3F6
:1007EF00FAE493A3F8E493A3C8C582C8CAC583CA21
:1007FF00F0A3C8C582C8CAC583CADFE9DEE780BED9
:010A140000E1
:1006C600BB010689828A83E0225002E722BBFE0232
:0906D600E32289828A83E4932265
:1006DF00BB010CE58229F582E5833AF583E02250D0
:1006EF0006E92582F8E622BBFE06E92582F8E2221A
:0D06FF00E58229F582E5833AF583E4932234
:10070C00F8BB010DE58229F582E5833AF583E8F023
:10071C00225006E92582C8F622BBFE05E92582C8CF
:02072C00F222B7
:10072E00BC000BBE0029EF8DF084FFADF022E4CCAF
:10073E00F875F008EF2FFFEE33FEEC33FCEE9DEC78
:10074E00984005FCEE9DFE0FD5F0E9E4CEFD22EDBE
:10075E00F8F5F0EE8420D21CFEADF075F008EF2F08
:10076E00FFED33FD4007985006D5F0F222C398FDF9
:05077E000FD5F0EA2296
:00000001FF
