:030000000200E318
:0C00E300787FE4F6D8FD75814B02012AFD
:0602E500014B03014A0277
:10031A00E4F542F5431200031202998F43E5436064
:10032A001CF580AB437DFC7F0212037D7F641203C0
:10033A00CFAB437DFC7F0112037DE4F5431203A793
:02034A0080D65B
:1002EB001010EEDEBE7EEDDDBD7DEBDBBB7BE7D71D
:0202FB00B777D3
:10029900E4F54575440F854490E5906544603A7FDF
:1002A9000A1203CF854490E5906544602CE590558A
:1002B90044FF6344FF854490E59055444FFFE59022
:1002C900B544FB8F90E4FE74102EF8E6B50706EEF0
:0B02D90004F54580040EBE10EEAF459A
:0102E40022F7
:1003CF007E6EAD071FED6008AD061EED60F480F880
:0103DF0022FB
:0B03E000EF1FAC0670011E4C70F622EF
:0A016F008E338F348B358A368937C2
:10017900853338853439E4F53AF53BAB35AA36A9E8
:1001890037853B82758300E412006C053BE53BB47F
:1001990005E9053AAE38AF397C007D0A12008E8E2A
:1001A900388F39E539453870E9853A3BE53BD394D1
:1001B900004037AE33AF347C007D0A12008EED2447
:1001C90030FFE53B7C0024FFF582EC34FFF583AB7F
:1001D90035AA36A937EF12006CAE33AF347D0A1257
:0A01E900008E8E338F34153B80C268
:0101F30022E9
:06024C008B3C8A3D893E57
:10025200E4F541EDC39540503DAF05E54014FEEF96
:10026200C39E501BEFF582758300A3AB3CAA3DA948
:100272003E12003F8F8275830012006C0F80DC7E7D
:100282000074FF2540F582EE34FFF583AB3CAA3DB6
:06029200A93EE412006C1D
:010298002243
:1002FD0008230000000000000000082B0000000093
:0C030D0000000000C100012100012200DE
:080019008F993099FDC2992274
:10000300758920758DFD758BFDD28ED29FD29ED2C0
:060013009CD2ACD2AF222A
:06034C008B478A48894935
:10035200E4FEC29B7FFF120019EEC39D5018AB470B
:100362000549E549AA487002054814F9120026FF1A
:0B0372001200190E80E37FFE0200194C
:10037D00AE07AC03D29B7FFF120019AF0612001916
:10038D00AF051200197FFE120019C29B0F12001942
:0A039D00AF041200197FFE020019E0
:030023000201F4E3
:0701F400C0E0C0D075D00887
:1001FB00754600C2ACC298209A22E521C3940840F0
:10020B00057521008036AF21052174232FF8A6999F
:10021B00E599B4FE25752100D200801EE522C3941A
:10022B000840057522008014AF220522742B2FF88D
:0C023B00A699E599B4FE03752200D2AC30
:05024700D0D0D0E03230
:1003A700300023E4F580C200E52BB4FF05E523F414
:1003B7006002C322E52CB54B02D322AB24AD2DAF8F
:0803C7004A12037DC322C32288
:1000EF0002031AE493A3F8E493A34003F68001F20A
:1000FF0008DFF48029E493A3F85407240CC8C33312
:10010F00C4540F4420C8834004F456800146F6DFE0
:10011F00E4800B01020408102040809002E5E47E89
:10012F00019360BCA3FF543F30E509541FFEE493D5
:10013F00A360010ECF54C025E060A840B8E493A39C
:10014F00FAE493A3F8E493A3C8C582C8CAC583CAC7
:10015F00F0A3C8C582C8CAC583CADFE9DEE780BE7F
:0103190000E3
:10002600BB010689828A83E0225002E722BBFE02D8
:09003600E32289828A83E493220B
:10003F00BB010CE58229F582E5833AF583E0225076
:10004F0006E92582F8E622BBFE06E92582F8E222C0
:0D005F00E58229F582E5833AF583E49322DA
:10006C00F8BB010DE58229F582E5833AF583E8F0CA
:10007C00225006E92582C8F622BBFE05E92582C876
:02008C00F2225E
:10008E00BC000BBE0029EF8DF084FFADF022E4CC56
:10009E00F875F008EF2FFFEE33FEEC33FCEE9DEC1F
:1000AE00984005FCEE9DFE0FD5F0E9E4CEFD22ED65
:1000BE00F8F5F0EE8420D21CFEADF075F008EF2FAF
:1000CE00FFED33FD4007985006D5F0F222C398FDA0
:0500DE000FD5F0EA223D
:00000001FF
