:0300000002095D95
:0C095D00787FE4F6D8FD7581690209A4DA
:090AD7000166020165030164647B
:100D2E00120D44120C2420000512000380F830002E
:060D3E00F5120A6E80F0C0
:1000260000000000000000000000000000000000CA
:100036000000183C3C3C1818180018180000000076
:10004600006363632200000000000000000000005F
:1000560000000036367F3636367F36360000000022
:100066000C0C3E6361603E030343633E0C0C0000D0
:1000760000000000006163060C18336300000000F6
:100086000000001C36361C3B6E66663B0000000016
:10009600003030306000000000000000000000006A
:1000A60000000C18183030303018180C0000000012
:1000B6000000180C0C060606060C0C1800000000C2
:1000C6000000000042663CFF3C6642000000000063
:1000D60000000000181818FF18181800000000008B
:1000E6000000000000000000000018181830000092
:1000F60000000000000000FF0000000000000000FB
:1001060000000000000000000000181800000000B9
:1001160000000103070E1C3870E0C08000000000DC
:1001260000003E6363636B6B6363633E0000000025
:1001360000000C1C3C0C0C0C0C0C0C3F00000000CE
:1001460000003E6303060C183061637F0000000068
:1001560000003E6303031E030303633E000000002A
:100166000000060E1E3666667F06060F00000000BB
:1001760000007F6060607E030363733E0000000042
:1001860000001C3060607E636363633E0000000015
:1001960000007F630306060C0C1818180000000008
:1001A60000003E6363633E636363633E00000000DA
:1001B60000003E636363633F0303063C00000000E8
:1001C60000000000001818000000181800000000C9
:1001D6000000000000181800000018181830000071
:1001E600000000060C18306030180C0600000000F5
:1001F6000000000000007E00007E000000000000FD
:100206000000006030180C060C183060000000007A
:1002160000003E6363060C0C0C000C0C0000000092
:1002260000003E63636F6B6B6E60603E0000000013
:100236000000081C366363637F636363000000008D
:1002460000007E3333333E333333337E0000000009
:1002560000001E33616060606061331E00000000B4
:1002660000007C36333333333333367C00000000F2
:1002760000007F3331343C343031337F00000000DE
:1002860000007F3331343C343030307800000000D9
:1002960000001E336160606F6363371D000000005D
:1002A6000000636363637F6363636363000000004E
:1002B60000003C18181818181818183C0000000000
:1002C60000000F06060606060666663C00000000ED
:1002D6000000733336363C36363333730000000085
:1002E60000007830303030303031337F000000008D
:1002F600000063777F6B63636363636300000000E2
:1003060000006363737B7F6F6763636300000000B5
:1003160000001C36636363636363361C00000000E1
:1003260000007E3333333E3030303078000000003A
:1003360000003E6363636363636B6F3E0607000002
:1003460000007E3333333E3636333373000000000D
:1003560000003E6363301C060363633E000000003A
:100366000000FFDB991818181818183C0000000048
:1003760000006363636363636363633E00000000BE
:10038600000063636363636363361C080000000058
:10039600000063636363636B6B7F363600000000A7
:1003A6000000C3C3663C18183C66C3C300000000C7
:1003B6000000C3C3C3663C181818183C00000000B0
:1003C60000007F6343060C183061637F0000000065
:1003D60000003C30303030303030303C000000001F
:1003E600000080C0E070381C0E070301000000000A
:1003F60000003C0C0C0C0C0C0C0C0C3C000000001F
:10040600081C366300000000000000000000000029
:10041600000000000000000000000000FF000000D7
:1004260018180C000000000000000000000000008A
:1004360000000000003C46063E66663B00000000E9
:1004460000007030303C36333333336E000000002A
:1004560000000000003E63606060633E0000000034
:1004660000000E06061E36666666663B0000000045
:1004760000000000003E63637E60633E00000000F3
:1004860000001C3632307C303030307800000000FE
:1004960000000000003B666666663E06663C00009D
:1004A6000000703030363B333333337300000000C6
:1004B60000000C0C001C0C0C0C0C0C1E00000000A8
:1004C60000000606000E060606060666663C0000E6
:1004D60000007030303333363C3633730000000092
:1004E60000001C0C0C0C0C0C0C0C0C1E000000006C
:1004F60000000000006E7F6B6B6B6B6B00000000F2
:1005060000000000006E3333333333330000000045
:1005160000000000003E63636363633E000000006A
:1005260000000000006E333333333E303078000075
:1005360000000000003B666666663E06060F000089
:1005460000000000006E3B333030307800000000C1
:1005560000000000003E63380E03633E000000000A
:1005660000000818187E181818181B0E0000000046
:1005760000000000006666666666663B00000000D6
:100586000000000000636336361C1C0800000000F3
:1005960000000000006363636B6B7F3600000000A1
:1005A600000000000063361C1C1C366300000000BF
:1005B600000000000063636363633F03063C0000C2
:1005C60000000000007F660C1830637F000000000A
:1005D60000000E18181870181818180E00000000E1
:1005E6000000181818181800181818181800000015
:1005F6000000701818180E1818181870000000005F
:1006060000003B6E0000000000000000000000003B
:100616000070D8D870000000000000000000000044
:080626000000000000000000CC
:05001E00C2A2D2A222E3
:100D1500E4FEEF30E704D2A18002C2A1C2A0D2A0B6
:080D2500EF25E0FF0EBE08EA15
:010D2D0022A3
:0807F3008F108B118A1289138B
:1007FB00E4F514F515F51678177C00FD7BFF7A06EA
:10080B007926FE7F081206FEE510D39400500302F2
:10081B0008A9E510940940030208A9E51014F51482
:10082B00D2A3AB11AA12A913120724602324E0FF51
:10083B00C3740795142417F8A6070514E514C3947D
:10084B0008500D74012513F513E43512F51280D2FF
:10085B00E4F515851590E4F51674172516F8E6756D
:10086B00F010A42426F582E5F03400F583E582250B
:10087B0015F582E43583F583E493FF120D15051608
:10088B00E516C3940840D2D2A312001EC2A3AF64D4
:0E089B007E00120DEA0515E515C3941040B558
:0108A900222C
:100AE00014280000000000000000000000000000CA
:100AF000000000000000053D000000000008424129
:100B000049443A00000000084A00000000000000CC
:060B100000013C00C18061
:10000300120CC65005AF5E120D5AE53C7002D200C9
:0B0013007B007A0079427F010207F3B6
:100BD80075110075120075133D7427253CF8E6FF62
:100BE8007E007B007A00793D1209E97F047846E4AB
:100BF800F608DFFC7F04AB11AA12A91312072460C0
:100C08001A74392FF8E6FE74422FF8A6060F7401FD
:0B0C18002513F513E43512F51280DB04
:010C230022AE
:0D0DDD00AF3C053C74282FF8A655020BD83A
:100D99007B007A007928153CAD3C751514120B8B34
:030DA900020BD862
:100CEE00E4F510F510E510C3953C50127B007A0028
:100CFE007928751514AD10120B8B051080E7E4F5ED
:070D0E003C853C80020BD87C
:100A6E00120CC65007C200AF5E020D5A7B007A0010
:100A7E0079211208AAE52375F00A842430F54AE597
:100A8E002375F00A84E5F02430F54B754C3AE522D7
:100A9E0075F00A842430F54DE52275F00A84E5F0F0
:100AAE002430F54E754F3AE52175F00A842430F561
:100ABE0050E52175F00A84E5F02430F5517B007A7B
:090ACE0000794A7F011207F322AE
:100D5A00EF24066009146009147009020DDD020D02
:050D6A0099120CEE22BD
:0F0DBD00EF7F08A2E092B4D2B3C2B3C313DFF446
:010DCC002204
:0F0DCD007F08C313A2B492E7D2B3C2B3DFF4FF1F
:010DDC0022F4
:100D6F00AE05C2B2C2B3D2B2120DBDAF06120DBDE7
:050D7F00D2B3C2B22254
:100D8400C2B2C2B3D2B2EF4401FF120DBD120DCDF7
:040D9400D2B3C2B262
:010D98002238
:1008AA007F80120D84EF5470C4540F75F00AA4FEB1
:1008BA00EF540F2E12076A7F82120D84EF5470C410
:1008CA00540F75F00AA4FEEF540F2E900001120780
:1008DA007C7F84120D84EF5470C4540F75F00AA4FF
:1008EA00FEEF540F2E90000212077C7F86120D84B1
:1008FA00EF5470C4540F75F00AA4FEEF540F2E90F3
:10090A00000412077C7F8A120D84EF5470C4540FBE
:10091A0075F00AA4FEEF540F2E90000312077C7F95
:10092A0088120D84EF5470C4540F75F00AA4FEEFB8
:10093A00540F2E90000512077C7F8C120D84EF5401
:10094A0070C4540F75F00AA4FEEF540F2E900006DF
:03095A0002077C15
:100C24007F80120D84EF30E73DE4FD7F8E120D6F5F
:100C34007D077F8C120D6F7F88120D6F7D257F8657
:100C4400120D6F7D077F8A120D6F7D237F84120D35
:100C54006F7D597F82120D6F7D557F80120D6F7DE0
:060C6400807F8E120D6F6F
:010C6A002267
:100DAC007E6EAD071FED6008AD061EED60F480F899
:010DBC002214
:0B0DEA00EF1FAC0670011E4C70F622DB
:0A09E9008E148F158B168A178918DB
:1009F30085141985151AE4F51BF51CAB16AA17A95E
:100A030018851C82758300E412077C051CE51CB461
:100A130005E9051BAE19AF1A7C007D0A12079E8EED
:100A2300198F1AE51A451970E9851B1CE51CD39427
:100A3300004037AE14AF157C007D0A12079EED24EB
:100A430030FFE51C7C0024FFF582EC34FFF583AB1B
:100A530016AA17A918EF12077CAE14AF157D0A1258
:0A0A6300079E8E148F15151C80C22B
:010A6D002266
:060B8B008B118A12891390
:100B9100E4F516EDC39515503DAF05E51514FEEFCF
:100BA100C39E501BEFF582758300A3AB11AA12A956
:100BB1001312073D8F8275830012077C0F80DC7E44
:100BC1000074FF2515F582EE34FFF583AB11AA12EF
:060BD100A913E412077CE9
:010BD70022FB
:100B160008540000000000000000085C000000000F
:0C0B260000000000C1010152000153005A
:080DF5008F993099FDC299228B
:100D4400758920758DFD758BFDD28ED29FD29ED272
:060D54009CD2ACD2AF22DC
:060C6B008B678A688969AD
:100C7100E4FEC29B7FFF120DF5EEC39D5018AB67DA
:100C81000569E569AA687002056814F9120724FF6D
:0B0C9100120DF50E80E37FFE020DF552
:100C9C00AE07AC03D29B7FFF120DF5AF06120DF51C
:100CAC00AF05120DF57FFE120DF5C29B0F120DF55F
:0A0CBC00AF04120DF57FFE020DF5E6
:03002300020B339A
:070B3300C0E0C0D075D0083E
:100B3A00751F00C2ACC298209A22E552C39408409D
:100B4A00057552008036AF52055274542FF8A69993
:100B5A00E599B4FE25755200D201801EE553C3946F
:100B6A000840057553008014AF530553745C2FF881
:0C0B7A00A699E599B4FE03755300D2ACB7
:050B8600D0D0D0E032E8
:100CC600300123E4F580C201E55CB4FF05E554F488
:100CD6006002C322E55DB56602D322AB55AD5EAFB9
:080CE60065120C9CC322C3221D
:10096900020D2EE493A3F8E493A34003F68001F269
:1009790008DFF48029E493A3F85407240CC8C3338F
:10098900C4540F4420C8834004F456800146F6DF5E
:10099900E4800B0102040810204080900AD7E47E0D
:1009A900019360BCA3FF543F30E509541FFEE49353
:1009B900A360010ECF54C025E060A840B8E493A31A
:1009C900FAE493A3F8E493A3C8C582C8CAC583CA45
:1009D900F0A3C8C582C8CAC583CADFE9DEE780BEFD
:010B320000C2
:10062E00E709F608DFFA8046E709F208DFFA803EAE
:10063E0088828C83E709F0A3DFFA8032E309F6089B
:10064E00DFFA8078E309F208DFFA807088828C8303
:10065E00E309F0A3DFFA806489828A83E0A3F608B7
:10066E00DFFA805889828A83E0A3F208DFFA804C91
:10067E0080D280FA80C680D4806980F28033801068
:10068E0080A680EA809A80A880DA80E280CA8033D1
:10069E0089828A83ECFAE493A3C8C582C8CCC58349
:1006AE00CCF0A3C8C582C8CCC583CCDFE9DEE78019
:1006BE000D89828A83E493A3F608DFF9ECFAA9F098
:1006CE00EDFB2289828A83ECFAE0A3C8C582C8CCEE
:1006DE00C583CCF0A3C8C582C8CCC583CCDFEADE07
:1006EE00E880DB89828A83E493A3F208DFF980CC69
:1006FE0088F0EF60010E4E60C388F0ED2402B40462
:10070E000050B9F582EB2402B4040050AF23234508
:06071E00822390067E73A9
:10072400BB010689828A83E0225002E722BBFE02D3
:09073400E32289828A83E4932206
:10073D00BB010CE58229F582E5833AF583E0225071
:10074D0006E92582F8E622BBFE06E92582F8E222BB
:0D075D00E58229F582E5833AF583E49322D5
:10076A00BB010689828A83F0225002F722BBFE016E
:02077A00F32268
:10077C00F8BB010DE58229F582E5833AF583E8F0B3
:10078C00225006E92582C8F622BBFE05E92582C85F
:02079C00F22247
:10079E00BC000BBE0029EF8DF084FFADF022E4CC3F
:1007AE00F875F008EF2FFFEE33FEEC33FCEE9DEC08
:1007BE00984005FCEE9DFE0FD5F0E9E4CEFD22ED4E
:1007CE00F8F5F0EE8420D21CFEADF075F008EF2F98
:1007DE00FFED33FD4007985006D5F0F222C398FD89
:0507EE000FD5F0EA2226
:00000001FF
