:0300000002015AA0
:0C015A00787FE4F6D8FD75810A0201A14F
:0301F700010A00FA
:070201001200038F8080F959
:0601FA00010800010900EC
:100003007590FE8590095309F0E50964F060467F19
:10001300051201E68590095309F0E50964F060E9EA
:10002300859009E5092482601B24C0601224E060E6
:100033000924F07012750801800D75080280087597
:1000430008038003750804E50964F060CD85900911
:100053005309F080F27590FD8590095309F0E50985
:1000630064F060467F051201E68590095309F0E5C7
:100073000964F060E9859009E5092483601B24C0C5
:10008300601224E0600924F07012750805800D7574
:10009300080680087508078003750808E50964F0F9
:1000A30060CD8590095309F080F27590FB85900926
:1000B3005309F0E50964F060467F051201E6859077
:1000C300095309F0E50964F060E9859009E509241D
:1000D30085601B24C0601224E0600924F07012754F
:1000E3000809800D75080A800875080B80037508D8
:1000F3000CE50964F060CD8590095309F080F27531
:1001030090F78590095309F0E50964F060467F058F
:100113001201E68590095309F0E50964F060E98569
:100123009009E5092489601B24C0601224E060095A
:1001330024F0701275080D800D75080E800875087F
:100143000F8003750810E50964F060CD85900953AD
:0601530009F080F2AF0884
:010159002283
:1001E6007E6EAD071FED6008AD061EED60F480F86B
:0101F60022E6
:10016600020201E493A3F8E493A34003F68001F2AC
:1001760008DFF48029E493A3F85407240CC8C3339A
:10018600C4540F4420C8834004F456800146F6DF69
:10019600E4800B01020408102040809001F7E47E01
:1001A600019360BCA3FF543F30E509541FFEE4935E
:1001B600A360010ECF54C025E060A840B8E493A325
:1001C600FAE493A3F8E493A3C8C582C8CAC583CA50
:1001D600F0A3C8C582C8CAC583CADFE9DEE780BE08
:0102000000FD
:00000001FF
